:040000002BEF01F0F1
:100008002F82FACF06F0FBCF07F0E9CF08F0EACF4E
:1000180009F0E1CF0AF0E2CF0BF0D9CF0CF0DACF3C
:100028000DF0F3CF0EF0F4CF0FF0F6CF10F0F7CFBE
:1000380011F0F8CF12F0F5CF13F0B1EC0DF0000984
:10004800D8B4E7D0000120EE86F0A251D926A351FA
:10005800CED020EE03F02150D9262250DA22030E0A
:10006800DE18D8A4BFD0040E0001A225236E000E0E
:100078000001A321246E23C0D9FF24C0DAFFE8CFF2
:10008800DFFF20EE01F02350D9262450DA22E0CFFA
:10009800DFFF20EE02F02350D9262450DA22D8CFF1
:1000A800DFFF030E2324176E000E2420186E27D0BE
:1000B80020EE7FF02350D9262450DA22DF501B6E21
:1000C80020EE7FF02350D9262450DA22DF2AFD5073
:1000D800026EFE50036EFF50046E056A1B50040D3D
:1000E800F3501724D96EF4501820DA6E02C0DEFFE0
:1000F80003C0DEFF04C0DEFF05C0DEFF0600FC50C3
:100108001F0B0009D8A4D4D7000120EE03F0A25198
:10011800D926A351DA22030EDF6E20EE03F0215018
:10012800D9262250DA22010EDF6E21C0A2F022C0A9
:10013800A3F0040E0001A225236E000E0001A321E6
:10014800246E030E2324196E000E24201A6E29D063
:1001580020EE7FF02350D9262450DA22DF06DF5024
:100168001C6E05001C50040DF3501924D96EF45070
:100178001A20DA6EDECF1DF0DECF1EF0DECF1FF0C4
:10018800DECF20F01FC014F01EC015F01DC016F001
:1001980000011451FF6E00011551FE6E0001165149
:1001A800FD6E20EE7FF02350D9262450DA22DF504E
:1001B800D8A4CED723C0D9FF24C0DAFFDF50026EFF
:1001C800025020EE01F02350D9262450DA22DF50C5
:1001D800E06E20EE02F02350D9262450DA22DF50B8
:1001E800D86E13D020EE86F02150D9262250DA227C
:1001F800DECF21F0DDCF22F00001A251211804E169
:100208000001A3512218D8A424D750EC0DF0AEEC6D
:100218000DF013C0F5FF12C0F8FF11C0F7FF10C0B2
:10022800F6FF0FC0F4FF0EC0F3FF0DC0DAFF0CC0DD
:10023800D9FF0BC0E2FF0AC0E1FF09C0EAFF08C00E
:10024800E9FF07C0FBFF06C0FAFF2F9211007BEF02
:020258000CF0A8
:100F000000000102030405060708FF0400010403B2
:100F10000200F2BE07D0030EF66E0F0EF76E080049
:100F2000F55012000001A2510001A311D8B4FF0036
:100F300006EC0CF039C148F13AC149F1000120EE4C
:100F400003F0A251D926A351DA22DE04D8A412D08C
:100F5000010120EE01F04851D9264951DA22000161
:100F600010EE01F0A251E126A351E222DE50E65C30
:100F7000D8B0EFD0BAEC0DF0040E0001A2250101AB
:100F80004A6F000E0001A32101014B6F4AC1D9FF36
:100F90004BC1DAFFE8CFDFFF010120EE01F04A513B
:100FA000D9264B51DA22E0CFDFFF010120EE02F01B
:100FB0004A51D9264B51DA22D8CFDFFF030E010167
:100FC0004A2501013E6F000E01014B2101013F6FD7
:100FD00031D0010120EE7FF04A51D9264B51DA225F
:100FE000DF500101426F010120EE7FF04A51D92606
:100FF0004B51DA22DF2AFD500001926FFE500001B2
:10100000936FFF500001946F0001956B01014251F5
:10101000040DF35001013E25D96EF45001013F212A
:10102000DA6E92C0DEFF93C0DEFF94C0DEFF95C093
:10103000DEFF0600FC501F0B0009D8A4CAD7000130
:1010400020EE03F0A251D926A351DA22DE04D8A45F
:1010500009D0000120EE03F0A251D926A351DA22D3
:10106000030EDF6E010120EE03F04851D9264951ED
:10107000DA22010EDF6E48C1A2F049C1A3F0040ECE
:101080000001A22501014A6F000E0001A321010108
:101090004B6F030E01014A250101406F000E010153
:1010A0004B210101416F2ED0010120EE7FF04A510A
:1010B000D9264B51DA22DF06DF500101436F0500CC
:1010C00001014351040DF35001014025D96EF45044
:1010D00001014121DA6EDECF44F1DECF45F1DECFF2
:1010E00046F1DECF47F146C13BF145C13CF144C179
:1010F0003DF101013B51FF6E01013C51FE6E0101CA
:101100003D51FD6E010120EE7FF04A51D9264B5131
:10111000DA22DF50D8A4C8D74AC1D9FF4BC1DAFFC1
:10112000DF500001926F00019251010120EE01F0A9
:101130004A51D9264B51DA22DF50E06E010120EEF0
:1011400002F04A51D9264B51DA22DF50D86EB8EC62
:101150000DF0010EF66E0F0EF76E0800F55012003E
:10116000000E0101516FFF0E0001986FFF0E00018C
:10117000996F0B0EF66E0F0EF76E0800F55000011A
:101180009A6F9B6B0001985100019A2700019951B9
:1011900000019B230101515100019C6F9D6B0001D7
:1011A0009A5100019C5D00019D51800A00019E6FD3
:1011B00000019B51800A00019E59D8B01200010124
:1011C00051518E0D590EF3240101546F010EF4207C
:1011D0000101556F54C14CF155C14DF154C14EF14F
:1011E00055C14FF1010120EE86F05451D9265551D9
:1011F000DA2201015451DE1867E101015551DE1870
:10120000D8A462D0010151290101506F0B0EF66E76
:101210000F0EF76E0900F5500101505DD8B03ED0B9
:10122000010150518E0D590EF3240101526F010E30
:10123000F4200101536F010152510101541906E1DB
:101240000101535101015519D8B425D0010120EEF7
:1012500002F05251D9265351DA22010110EE02F068
:101260005451E1265551E222DE50E618D8A413D09D
:10127000010120EE86F05451D9265551DA2252C18F
:10128000DEFF53C1DDFF52C154F153C155F152C1CC
:101290004EF153C14FF10101502BB8D701014C5110
:1012A00001014E1906E101014D5101014F19D8B458
:1012B0000BD0010120EE86F04E51D9264F51DA2293
:1012C0004CC1DEFF4DC1DDFF0101512B4CD757C191
:1012D00050F158C151F10C0EF66E0F0EF76E08006A
:1012E000F5CF52F1000E0101536F030E0101546F4F
:1012F0006C0E0101556F1B0E0101566FB2EC0BF025
:10130000590E0101506F010E0101516F0D0EF66E65
:101310000F0EF76E0800F5CF52F1010E0101536F69
:10132000040E0101546F7A0E0101556F1A0E01016E
:10133000566FB2EC0BF0E70E0101506F010E010188
:10134000516F100EF66E0F0EF76E0800F5CF52F1CA
:10135000020E0101536F040E0101546F280E0101AA
:10136000556F1A0E0101566FB2EC0BF0750E0101AC
:10137000506F020E0101516F0F0EF66E0F0EF76ED9
:101380000800F5CF52F1030E0101536F040E010165
:10139000546F520E0101556F1A0E0101566FB2ECD7
:1013A0000BF0030E0101506F030E0101516F0E0E81
:1013B000F66E0F0EF76E0800F5CF52F1FE0E01012A
:1013C000536F030E0101546FC00E0101556F1A0EC9
:1013D0000101566FB2EC0BF0B0EC08F01200000106
:1013E000846F000E0001856F000E0001866F000EF5
:1013F0000001876F000E0001886F0B0EF66E0F0E56
:10140000F76E0900F5500001885DD8B031D00001B9
:1014100088518E0D590EF324D96E010EF420DA6E28
:1014200000018451DE18D8A420D0010E0001856F80
:10143000000188518E0D030EF326000EF422590E82
:10144000F324D96E010EF420DA6E040EDE18D8A44F
:101450000CD0000188518E0D590EF3240001866FC7
:10146000010EF4200001876F03D00001882BC5D73F
:10147000000185510001D8A407D0040EF66E0F0EAE
:10148000F76E0800F5501200000186510001871127
:10149000D8A405D0050EF66E0F0EF76EF2D7040E27
:1014A000000186250101266F000E00018721010140
:1014B000276F000120EE84F08651D9268751DA2269
:1014C000DECF28F1DDCF29F154EC0BF0000120EE46
:1014D00003F08651D9268751DA22030EDF6E010E02
:1014E000F66E0F0EF76E0800F5501200A1EC0DF02D
:1014F00057C1A2F058C1A3F0000E0001A06F0B0E5F
:10150000F66E0F0EF76E0900F5500001A05DD8B021
:101510002FD00001A0518E0D590EF32400019E6FB3
:10152000010EF42000019F6F000120EE03F09E5198
:10153000D9269F51DA22030EDE18D8A416D0000156
:1015400020EE01F09E51D9269F51DA22000110EEC3
:1015500001F0A251E126A351E222DE50E65CD8B0B0
:1015600004D09EC0A2F09FC0A3F00001A02BC7D75B
:10157000000120EE03F0A251D926A351DA22010E78
:10158000DF6E01D00600FC501F0B0009D8A4FAD76B
:10159000000120EE83F0A251D926A351DA22000ED9
:1015A000DF6E0500000120EE84F0A251D926A35180
:1015B000DA22DECF98F0DDCF99F098C09AF099C08A
:1015C0009BF000019C6B9D6B9CC0A1F00001A151A0
:1015D000FF6E9BC0A1F00001A151FE6E9AC0A1F068
:1015E0000001A151FD6EB4EC0DF012004CC1D9FF09
:1015F0004DC1DAFF000EDF6E010120EE01F04C510B
:10160000D9264D51DA22000EDF6E010120EE02F0E4
:101610004C51D9264D51DA22000EDF6E030E010126
:101620004C2500019C6F000E01014D2100019D6FB2
:10163000000E00019E6F1E0E00019E6501D012D0AB
:1016400000019E51040DF35000019C25D96EF45009
:1016500000019D21DA6EDE6ADE6ADE6ADD6A000163
:101660009E2BE9D701014E510001986F01014F51A6
:101670000001996F00019A6B00019B6B9CC0D9FF20
:101680009DC0DAFF98C0DEFF99C0DEFF9AC0DEFF82
:101690009BC0DEFF010120EE7FF04C51D9264D5159
:1016A000DA22010EDF6E120026C1D9FF27C1DAFF50
:1016B000000EDF6E010120EE01F02651D9262751E0
:1016C000DA22000EDF6E010120EE02F02651D9264B
:1016D0002751DA22000EDF6E030E010126250001DC
:1016E000806F000E010127210001816F000E0001B3
:1016F000826F1E0E0001826501D012D0000182515E
:10170000040DF35000018025D96EF45000018121B1
:10171000DA6EDE6ADE6ADE6ADD6A0001822BE9D7F4
:101720000101285100017C6F0101295100017D6FE9
:1017300000017E6B00017F6B80C0D9FF81C0DAFFA2
:101740007CC0DEFF7DC0DEFF7EC0DEFF7FC0DEFF2F
:10175000010120EE7FF02651D9262751DA22010E11
:10176000DF6E120050C1D9FF51C1DAFF52C1DFFF55
:10177000010120EE01F05051D9265151DA2253C116
:10178000DFFF010120EE02F05051D9265151DA223B
:1017900053C1DFFF010120EE03F05051D926515112
:1017A000DA2254C1DFFF010120EE84F05051D92626
:1017B0005151DA2255C1DEFF56C1DDFF010120EE95
:1017C00086F05051D9265151DA2250C1DEFF51C165
:1017D000DDFF040E0101502501014C6F000E0101D7
:1017E000512101014D6F55C14EF156C14FF1F6EC3B
:1017F0000AF0880E0101502501014C6F000E010115
:10180000512101014D6F4BEC0CF0120057C18DF0CE
:1018100058C18EF0000E0001916F0B0EF66E0F0E88
:10182000F76E0900F5500001915DD8B02FD000018E
:1018300091518E0D590EF32400018F6F010EF4208B
:101840000001906F000120EE03F08F51D9269051D6
:10185000DA22030EDE18D8A416D0000120EE01F023
:101860008F51D9269051DA22000110EE01F08D51EE
:10187000E1268E51E222DE50E65CD8B004D08FC063
:101880008DF090C08EF00001912BC7D78DC039F13B
:101890008EC03AF112000A0EF66E0F0EF76E4CC1B2
:1018A000D9FF4DC1DAFF0800F5CFDFFF0A0EF66E53
:1018B0000F0EF76E010120EE01F04C51D9264D516B
:1018C000DA220800F5CFDFFF010120EE02F04C51D3
:1018D000D9264D51DA22000EDE6E000EDD6E0101BA
:1018E00020EE04F04C51D9264D51DA22000EDE6E66
:1018F000000EDD6E120001EE59F012EEC6F0EE6A37
:10190000E550E150FCE1E250FAE10001A36BA26B6B
:1019100000EE25F00A0EEE6AE806FDE1780EF66E9E
:101920001B0EF76E000EF86E0900F5CF57F1090097
:10193000F5CF58F12F902F92000EF86E00017AEF3C
:101940000DF0016EFEEC0CF0026E010EF66E0F0E45
:10195000F76E0800F5500218D8A412000150EFEC01
:1019600009F0026E010EF66E0F0EF76E0800F550CC
:101970000218D8A41200010EF66E0F0EF76E0800C2
:10198000F5CF02F089EC07F0026E12000001896FBA
:1019900000018951EFEC09F000018A6F010EF66E2B
:1019A0000F0EF76E0800F55000018A19D8A4120036
:1019B000010EF66E0F0EF76E0800F5CF8AF089EC77
:1019C00007F000018A6F1200FEEC0CF00001966F28
:1019D000010EF66E0F0EF76E0800F5500001961915
:1019E000D8A41200010EF66E0F0EF76E0800F5CFA8
:1019F00096F089EC07F00001966F12000001A251E9
:101A00000001A311D8B4FF00000120EE03F0A251A1
:101A1000D926A351DA22040EDF6E010EF66E0F0EE8
:101A2000F76E0800F550120081820F0EF66E0F0E51
:101A3000F76E0800F550C6EC0CF081920F0EF66EB2
:101A40000F0EF76E0800F550C6EC0CF0E4EC0CF04D
:101A500012008AB404D00001976B972B02D00001CA
:101A6000976B000197479747815000019719FB0B2F
:101A70009719816EE4EC0CF012008180100EF66E66
:101A80000F0EF76E0800F550C6EC0CF08190100EAA
:101A9000F66E0F0EF76E0800F550C6EC0CF0EDD7A1
:101AA00025502610D8B4120001D812000500FA6E95
:101AB0002550FD6E2650FE6EF850FF6EFA50120053
:101AC0009390939293948190819281940D0EF66EEF
:101AD0000F0EF76E0800F550A1EC0CF01200D58641
:101AE000D580D582D584D59AD59CD58E95EC0DF030
:101AF000F28A120067EC09F0BDEC0DF0000E76ECF6
:101B00000AF000F0FED76FEC0DF095EC0DF05C0ED6
:101B1000256E1B0E266E1200000E016EF2BAF2A4A4
:101B200002D0010E016E01501200F294C10ED76E68
:101B3000800ED66E1200F294C10ED76E800ED66E55
:101B40001200ABEC0DF083EC0DF01200D388D38AB9
:101B5000D38C9B8C1200A6EC0DF012009BEC0DF0C8
:101B600012008CEC0DF01200F28E120000F0FED785
:0C1B7000F28E1200F29E1200910312008F
:020000040020DA
:08000000FFFFFFFFFFFFFFFF00
:020000040030CA
:0E0000001D19797CFF8991FF0FC00FE00F40A2
:00000001FF
